{
  "_format": "hh-sol-artifact-1",
  "contractName": "Raffle",
  "sourceName": "contracts/Raffle.sol",
  "abi": [
    {
      "inputs": [
        {
          "internalType": "address",
          "name": "vrfCoordinatorV2",
          "type": "address"
        },
        {
          "internalType": "uint64",
          "name": "subscriptionId",
          "type": "uint64"
        },
        {
          "internalType": "bytes32",
          "name": "gasLane",
          "type": "bytes32"
        },
        {
          "internalType": "uint256",
          "name": "updateInterval",
          "type": "uint256"
        },
        {
          "internalType": "uint256",
          "name": "entranceFee",
          "type": "uint256"
        },
        {
          "internalType": "uint32",
          "name": "callBackGasLimit",
          "type": "uint32"
        }
      ],
      "stateMutability": "nonpayable",
      "type": "constructor"
    },
    {
      "inputs": [
        {
          "internalType": "address",
          "name": "have",
          "type": "address"
        },
        {
          "internalType": "address",
          "name": "want",
          "type": "address"
        }
      ],
      "name": "OnlyCoordinatorCanFulfill",
      "type": "error"
    },
    {
      "inputs": [],
      "name": "Raffle__NotEnoughEthEntered",
      "type": "error"
    },
    {
      "inputs": [],
      "name": "Raffle__NotOpen",
      "type": "error"
    },
    {
      "inputs": [],
      "name": "Raffle__TransferFailed",
      "type": "error"
    },
    {
      "inputs": [
        {
          "internalType": "uint256",
          "name": "currentBalance",
          "type": "uint256"
        },
        {
          "internalType": "uint256",
          "name": "numPlayers",
          "type": "uint256"
        },
        {
          "internalType": "uint256",
          "name": "raffleState",
          "type": "uint256"
        }
      ],
      "name": "Raffle__UpkeepNeeded",
      "type": "error"
    },
    {
      "anonymous": false,
      "inputs": [
        {
          "indexed": true,
          "internalType": "address",
          "name": "player",
          "type": "address"
        }
      ],
      "name": "RaffleEnter",
      "type": "event"
    },
    {
      "anonymous": false,
      "inputs": [
        {
          "indexed": true,
          "internalType": "uint256",
          "name": "requestId",
          "type": "uint256"
        }
      ],
      "name": "RequestedRaffleWinner",
      "type": "event"
    },
    {
      "anonymous": false,
      "inputs": [
        {
          "indexed": true,
          "internalType": "address",
          "name": "winner",
          "type": "address"
        }
      ],
      "name": "WinnerPicked",
      "type": "event"
    },
    {
      "inputs": [
        {
          "internalType": "bytes",
          "name": "",
          "type": "bytes"
        }
      ],
      "name": "checkUpkeep",
      "outputs": [
        {
          "internalType": "bool",
          "name": "upkeepNeeded",
          "type": "bool"
        },
        {
          "internalType": "bytes",
          "name": "",
          "type": "bytes"
        }
      ],
      "stateMutability": "nonpayable",
      "type": "function"
    },
    {
      "inputs": [],
      "name": "counter",
      "outputs": [
        {
          "internalType": "uint256",
          "name": "",
          "type": "uint256"
        }
      ],
      "stateMutability": "view",
      "type": "function"
    },
    {
      "inputs": [],
      "name": "enterRaffle",
      "outputs": [],
      "stateMutability": "payable",
      "type": "function"
    },
    {
      "inputs": [],
      "name": "getEntranceFee",
      "outputs": [
        {
          "internalType": "uint256",
          "name": "",
          "type": "uint256"
        }
      ],
      "stateMutability": "view",
      "type": "function"
    },
    {
      "inputs": [],
      "name": "getInterval",
      "outputs": [
        {
          "internalType": "uint256",
          "name": "",
          "type": "uint256"
        }
      ],
      "stateMutability": "view",
      "type": "function"
    },
    {
      "inputs": [],
      "name": "getLastTimeStamp",
      "outputs": [
        {
          "internalType": "uint256",
          "name": "",
          "type": "uint256"
        }
      ],
      "stateMutability": "view",
      "type": "function"
    },
    {
      "inputs": [],
      "name": "getNumWords",
      "outputs": [
        {
          "internalType": "uint256",
          "name": "",
          "type": "uint256"
        }
      ],
      "stateMutability": "pure",
      "type": "function"
    },
    {
      "inputs": [],
      "name": "getNumberOfPlayers",
      "outputs": [
        {
          "internalType": "uint256",
          "name": "",
          "type": "uint256"
        }
      ],
      "stateMutability": "view",
      "type": "function"
    },
    {
      "inputs": [
        {
          "internalType": "uint256",
          "name": "index",
          "type": "uint256"
        }
      ],
      "name": "getPlayer",
      "outputs": [
        {
          "internalType": "address",
          "name": "",
          "type": "address"
        }
      ],
      "stateMutability": "view",
      "type": "function"
    },
    {
      "inputs": [],
      "name": "getRaffleState",
      "outputs": [
        {
          "internalType": "enum Raffle.RaffleState",
          "name": "",
          "type": "uint8"
        }
      ],
      "stateMutability": "view",
      "type": "function"
    },
    {
      "inputs": [],
      "name": "getRecentWinner",
      "outputs": [
        {
          "internalType": "address",
          "name": "",
          "type": "address"
        }
      ],
      "stateMutability": "view",
      "type": "function"
    },
    {
      "inputs": [],
      "name": "getRequestConfirmations",
      "outputs": [
        {
          "internalType": "uint256",
          "name": "",
          "type": "uint256"
        }
      ],
      "stateMutability": "pure",
      "type": "function"
    },
    {
      "inputs": [],
      "name": "i_interval",
      "outputs": [
        {
          "internalType": "uint256",
          "name": "",
          "type": "uint256"
        }
      ],
      "stateMutability": "view",
      "type": "function"
    },
    {
      "inputs": [
        {
          "internalType": "bytes",
          "name": "",
          "type": "bytes"
        }
      ],
      "name": "performUpkeep",
      "outputs": [],
      "stateMutability": "nonpayable",
      "type": "function"
    },
    {
      "inputs": [
        {
          "internalType": "uint256",
          "name": "requestId",
          "type": "uint256"
        },
        {
          "internalType": "uint256[]",
          "name": "randomWords",
          "type": "uint256[]"
        }
      ],
      "name": "rawFulfillRandomWords",
      "outputs": [],
      "stateMutability": "nonpayable",
      "type": "function"
    },
    {
      "inputs": [],
      "name": "s_lastTimeStamp",
      "outputs": [
        {
          "internalType": "uint256",
          "name": "",
          "type": "uint256"
        }
      ],
      "stateMutability": "view",
      "type": "function"
    }
  ],
  "bytecode": "0x6101606040526000600360146101000a81548160ff021916908360018111156200002e576200002d62000235565b5b02179055503480156200004057600080fd5b50604051620020a7380380620020a78339818101604052810190620000669190620003ca565b858073ffffffffffffffffffffffffffffffffffffffff1660808173ffffffffffffffffffffffffffffffffffffffff168152505050620000b867db41d6c7ef8d909d60c01b6200023260201b60201c565b620000d467694db1cd1a71a29960c01b6200023260201b60201c565b8160a08181525050620000f8675b59a8267174be2b60c01b6200023260201b60201c565b8573ffffffffffffffffffffffffffffffffffffffff1660c08173ffffffffffffffffffffffffffffffffffffffff168152505062000148670b55aa8f7e6028ea60c01b6200023260201b60201c565b8360e081815250506200016c67f94269b604bb463f60c01b6200023260201b60201c565b8467ffffffffffffffff166101008167ffffffffffffffff1681525050620001a5670d6a8012165ea5e560c01b6200023260201b60201c565b8063ffffffff166101208163ffffffff1681525050620001d66780b788498b651de360c01b6200023260201b60201c565b826101408181525050620001fb67ad5adc37084a20d560c01b6200023260201b60201c565b426002819055506200021e6787dc008efa505bca60c01b6200023260201b60201c565b600060018190555050505050505062000466565b50565b7f4e487b7100000000000000000000000000000000000000000000000000000000600052602160045260246000fd5b600080fd5b600073ffffffffffffffffffffffffffffffffffffffff82169050919050565b6000620002968262000269565b9050919050565b620002a88162000289565b8114620002b457600080fd5b50565b600081519050620002c8816200029d565b92915050565b600067ffffffffffffffff82169050919050565b620002ed81620002ce565b8114620002f957600080fd5b50565b6000815190506200030d81620002e2565b92915050565b6000819050919050565b620003288162000313565b81146200033457600080fd5b50565b60008151905062000348816200031d565b92915050565b6000819050919050565b62000363816200034e565b81146200036f57600080fd5b50565b600081519050620003838162000358565b92915050565b600063ffffffff82169050919050565b620003a48162000389565b8114620003b057600080fd5b50565b600081519050620003c48162000399565b92915050565b60008060008060008060c08789031215620003ea57620003e962000264565b5b6000620003fa89828a01620002b7565b96505060206200040d89828a01620002fc565b95505060406200042089828a0162000337565b94505060606200043389828a0162000372565b93505060806200044689828a0162000372565b92505060a06200045989828a01620003b3565b9150509295509295509295565b60805160a05160c05160e051610100516101205161014051611bca620004dd60003960008181610bd201528181610cfd0152610da8015260006109ef015260006109cc015260006109ab0152600061096f0152600081816103e8015261055d01526000818161046101526104b50152611bca6000f3fe6080604052600436106100f35760003560e01c80635f1b0fd81161008a57806391ad27b41161005957806391ad27b4146102ea578063c1c244e814610315578063e55ae4e814610340578063fd6673f51461037d576100f3565b80635f1b0fd81461022b57806361bc221a146102565780636919207d146102815780636e04ff0d146102ac576100f3565b806334854043116100c657806334854043146101815780634585e33b146101ac578063473f1ddc146101d557806353a2c19a14610200576100f3565b806309bc33a7146100f8578063115cbaf5146101235780631fe543e31461014e5780632cfcc53914610177575b600080fd5b34801561010457600080fd5b5061010d6103a8565b60405161011a9190611320565b60405180910390f35b34801561012f57600080fd5b5061013861040c565b60405161014591906113b2565b60405180910390f35b34801561015a57600080fd5b5061017560048036038101906101709190611566565b61045f565b005b61017f61051f565b005b34801561018d57600080fd5b50610196610792565b6040516101a39190611320565b60405180910390f35b3480156101b857600080fd5b506101d360048036038101906101ce919061161d565b610798565b005b3480156101e157600080fd5b506101ea610ad0565b6040516101f791906116ab565b60405180910390f35b34801561020c57600080fd5b50610215610b36565b6040516102229190611320565b60405180910390f35b34801561023757600080fd5b50610240610b81565b60405161024d9190611320565b60405180910390f35b34801561026257600080fd5b5061026b610bca565b6040516102789190611320565b60405180910390f35b34801561028d57600080fd5b50610296610bd0565b6040516102a39190611320565b60405180910390f35b3480156102b857600080fd5b506102d360048036038101906102ce919061177b565b610bf4565b6040516102e192919061185e565b60405180910390f35b3480156102f657600080fd5b506102ff610d68565b60405161030c9190611320565b60405180910390f35b34801561032157600080fd5b5061032a610dcc565b6040516103379190611320565b60405180910390f35b34801561034c57600080fd5b506103676004803603810190610362919061188e565b610e12565b60405161037491906116ab565b60405180910390f35b34801561038957600080fd5b50610392610e96565b60405161039f9190611320565b60405180910390f35b60006103be675ed21acb9627757660c01b610edf565b6103d267ff4bcbf5c55de7f360c01b610edf565b6103e66751bc66810b5ccb8660c01b610edf565b7f0000000000000000000000000000000000000000000000000000000000000000905090565b60006104226788771deb1324d44f60c01b610edf565b6104366732c26c745b13d8d860c01b610edf565b61044a678ac0fc6b5923df3960c01b610edf565b600360149054906101000a900460ff16905090565b7f000000000000000000000000000000000000000000000000000000000000000073ffffffffffffffffffffffffffffffffffffffff163373ffffffffffffffffffffffffffffffffffffffff161461051157337f00000000000000000000000000000000000000000000000000000000000000006040517f1cf993f40000000000000000000000000000000000000000000000000000000081526004016105089291906118bb565b60405180910390fd5b61051b8282610ee2565b5050565b610533673a9d39fbf66a1ad360c01b610edf565b61054767cb7976cec2d615c160c01b610edf565b61055b67d31a9a6168677f2f60c01b610edf565b7f00000000000000000000000000000000000000000000000000000000000000003410156105c95761059767510d0557d056b14860c01b610edf565b6040517f066d781f00000000000000000000000000000000000000000000000000000000815260040160405180910390fd5b6105dd677e4936a0fddba98060c01b610edf565b6105f167aa755ccdc9e6dd0260c01b610edf565b610605670db242a83d5c85dd60c01b610edf565b600060018111156106195761061861133b565b5b600360149054906101000a900460ff16600181111561063b5761063a61133b565b5b146106865761065467895fdef2a068e79460c01b610edf565b6040517f1425571c00000000000000000000000000000000000000000000000000000000815260040160405180910390fd5b61069a67e5766a6c178eb65f60c01b610edf565b6106ae67b32b2c4abdda629e60c01b610edf565b6106c267bd22b4cf160b71f960c01b610edf565b6000339080600181540180825580915050600190039060005260206000200160009091909190916101000a81548173ffffffffffffffffffffffffffffffffffffffff021916908373ffffffffffffffffffffffffffffffffffffffff16021790555061073967deb290f69f694acf60c01b610edf565b61074d676f82be2455f9dda760c01b610edf565b3373ffffffffffffffffffffffffffffffffffffffff167f0805e1d667bddb8a95f0f09880cf94f403fb596ce79928d9f29b74203ba284d460405160405180910390a2565b60025481565b6107ac67bbc7145320513a2c60c01b610edf565b6107c06750533ee3d9e7935160c01b610edf565b6107d467504a49fd1826311560c01b610edf565b60006107ee60405180602001604052806000815250610bf4565b50905061080567780401dc35b642e560c01b610edf565b6108196703ce75475e1350c960c01b610edf565b806108ad5761083267b9cf782f2fbeadc760c01b610edf565b61084667a7528c0968b1093260c01b610edf565b47600080549050600360149054906101000a900460ff16600181111561086f5761086e61133b565b5b6040517ff02a5e6a0000000000000000000000000000000000000000000000000000000081526004016108a4939291906118e4565b60405180910390fd5b6108c16763cff9604ad5ba7160c01b610edf565b6108d5670f5e628667c8a84060c01b610edf565b426002819055506108f06720bfb997867e38be60c01b610edf565b600180546108fe919061194a565b60018190555061091867431b304e9a62bfc960c01b610edf565b6001600360146101000a81548160ff0219169083600181111561093e5761093d61133b565b5b0217905550610957671eccb87220077dd360c01b610edf565b61096b6733c6c6e27226908260c01b610edf565b60007f000000000000000000000000000000000000000000000000000000000000000073ffffffffffffffffffffffffffffffffffffffff16635d3b1d307f00000000000000000000000000000000000000000000000000000000000000007f000000000000000000000000000000000000000000000000000000000000000060037f000000000000000000000000000000000000000000000000000000000000000060016040518663ffffffff1660e01b8152600401610a309594939291906119f6565b6020604051808303816000875af1158015610a4f573d6000803e3d6000fd5b505050506040513d601f19601f82011682018060405250810190610a739190611a5e565b9050610a89677dc617944716293460c01b610edf565b610a9d67719f63a5db81f1f660c01b610edf565b807fcd6e45c8998311cab7e9d4385596cac867e20a0587194b954fa3a731c93ce78b60405160405180910390a250505050565b6000610ae6675332f7a008b39f4f60c01b610edf565b610afa6744462d6a5579ef5b60c01b610edf565b610b0e67bc067ef038c8473c60c01b610edf565b600360009054906101000a900473ffffffffffffffffffffffffffffffffffffffff16905090565b6000610b4c6782910f88bcaf0f2360c01b610edf565b610b6067b543b2dd9416daf060c01b610edf565b610b746798d669859c77fe7c60c01b610edf565b600163ffffffff16905090565b6000610b97673162515528c282f360c01b610edf565b610bab676e264d8f029d17c260c01b610edf565b610bbf67c93e7ab9edb9645960c01b610edf565b600361ffff16905090565b60015481565b7f000000000000000000000000000000000000000000000000000000000000000081565b60006060610c0c6756a68c3c4ec79d2660c01b610edf565b610c20673238a1c00024d1aa60c01b610edf565b610c3467851689d670612d1d60c01b610edf565b6000806001811115610c4957610c4861133b565b5b600360149054906101000a900460ff166001811115610c6b57610c6a61133b565b5b149050610c82671e4701d40a90455160c01b610edf565b610c9667e80458589f77986260c01b610edf565b600080600080549050119050610cb6676c4799c69d9081d560c01b610edf565b610cca6798bc3803ba12a44d60c01b610edf565b60008047119050610ce56765e563df6594d0c460c01b610edf565b610cf967ddb273203647df7060c01b610edf565b60007f000000000000000000000000000000000000000000000000000000000000000060025442610d2a9190611a8b565b119050610d4167b8e311d36f484acb60c01b610edf565b838015610d4b5750825b8015610d545750815b8015610d5d5750805b955050505050915091565b6000610d7e672888a3b92b61f66160c01b610edf565b610d9267a3d60194c2f26c8460c01b610edf565b610da66762c21a2ede44eeec60c01b610edf565b7f0000000000000000000000000000000000000000000000000000000000000000905090565b6000610de26750be4224d3501f4860c01b610edf565b610df667ee95d19b8a542c5560c01b610edf565b610e0a674fec54afd58215e260c01b610edf565b600254905090565b6000610e2867399e4fc0a900a95560c01b610edf565b610e3c67c44eaa2903c9239660c01b610edf565b610e5067b9b745ad0b91462a60c01b610edf565b60008281548110610e6457610e63611abf565b5b9060005260206000200160009054906101000a900473ffffffffffffffffffffffffffffffffffffffff169050919050565b6000610eac67611df7dc4523f01560c01b610edf565b610ec0676ca5ce9fb76aaa9f60c01b610edf565b610ed467f7f472f59e01176960c01b610edf565b600080549050905090565b50565b610ef6676f09f922430c089c60c01b610edf565b610f0a67487f9017f782e07060c01b610edf565b610f1e6787abe6cda724579b60c01b610edf565b6000808054905082600081518110610f3957610f38611abf565b5b6020026020010151610f4b9190611b1d565b9050610f6167a7f240aeaf196ea960c01b610edf565b610f75676dfcdb9fa3476ced60c01b610edf565b6000808281548110610f8a57610f89611abf565b5b9060005260206000200160009054906101000a900473ffffffffffffffffffffffffffffffffffffffff169050610fcb676f0af802b8179a9a60c01b610edf565b80600360006101000a81548173ffffffffffffffffffffffffffffffffffffffff021916908373ffffffffffffffffffffffffffffffffffffffff1602179055506110206729b941d1ec6ff57d60c01b610edf565b6000600360146101000a81548160ff021916908360018111156110465761104561133b565b5b021790555061105f672c0baf1e9654884e60c01b610edf565b600067ffffffffffffffff81111561107a57611079611423565b5b6040519080825280602002602001820160405280156110a85781602001602082028036833780820191505090505b50600090805190602001906110be929190611260565b506110d3672c80d3e31d0802bc60c01b610edf565b6110e7672d335a53b896a91d60c01b610edf565b60008173ffffffffffffffffffffffffffffffffffffffff164760405161110d90611b7f565b60006040518083038185875af1925050503d806000811461114a576040519150601f19603f3d011682016040523d82523d6000602084013e61114f565b606091505b505090506111676753db76e6a22882c460c01b610edf565b61117b67bdbae1aa6cfc50c460c01b610edf565b806111da5761119467323fb3e9fdc91fa860c01b610edf565b6111a867f0a035bc998b20ad60c01b610edf565b6040517fa1d04b3900000000000000000000000000000000000000000000000000000000815260040160405180910390fd5b6111ee675ebc1c7220fc426460c01b610edf565b61120267dd262c8fc377a0d160c01b610edf565b61121667efbd1977493ef1a860c01b610edf565b8173ffffffffffffffffffffffffffffffffffffffff167f5b690ec4a06fe979403046eaeea5b3ce38524683c3001f662c8b5a829632f7df60405160405180910390a25050505050565b8280548282559060005260206000209081019282156112d9579160200282015b828111156112d85782518260006101000a81548173ffffffffffffffffffffffffffffffffffffffff021916908373ffffffffffffffffffffffffffffffffffffffff16021790555091602001919060010190611280565b5b5090506112e691906112ea565b5090565b5b808211156113035760008160009055506001016112eb565b5090565b6000819050919050565b61131a81611307565b82525050565b60006020820190506113356000830184611311565b92915050565b7f4e487b7100000000000000000000000000000000000000000000000000000000600052602160045260246000fd5b6002811061137b5761137a61133b565b5b50565b600081905061138c8261136a565b919050565b600061139c8261137e565b9050919050565b6113ac81611391565b82525050565b60006020820190506113c760008301846113a3565b92915050565b6000604051905090565b600080fd5b600080fd5b6113ea81611307565b81146113f557600080fd5b50565b600081359050611407816113e1565b92915050565b600080fd5b6000601f19601f8301169050919050565b7f4e487b7100000000000000000000000000000000000000000000000000000000600052604160045260246000fd5b61145b82611412565b810181811067ffffffffffffffff8211171561147a57611479611423565b5b80604052505050565b600061148d6113cd565b90506114998282611452565b919050565b600067ffffffffffffffff8211156114b9576114b8611423565b5b602082029050602081019050919050565b600080fd5b60006114e26114dd8461149e565b611483565b90508083825260208201905060208402830185811115611505576115046114ca565b5b835b8181101561152e578061151a88826113f8565b845260208401935050602081019050611507565b5050509392505050565b600082601f83011261154d5761154c61140d565b5b813561155d8482602086016114cf565b91505092915050565b6000806040838503121561157d5761157c6113d7565b5b600061158b858286016113f8565b925050602083013567ffffffffffffffff8111156115ac576115ab6113dc565b5b6115b885828601611538565b9150509250929050565b600080fd5b60008083601f8401126115dd576115dc61140d565b5b8235905067ffffffffffffffff8111156115fa576115f96115c2565b5b602083019150836001820283011115611616576116156114ca565b5b9250929050565b60008060208385031215611634576116336113d7565b5b600083013567ffffffffffffffff811115611652576116516113dc565b5b61165e858286016115c7565b92509250509250929050565b600073ffffffffffffffffffffffffffffffffffffffff82169050919050565b60006116958261166a565b9050919050565b6116a58161168a565b82525050565b60006020820190506116c0600083018461169c565b92915050565b600080fd5b600067ffffffffffffffff8211156116e6576116e5611423565b5b6116ef82611412565b9050602081019050919050565b82818337600083830152505050565b600061171e611719846116cb565b611483565b90508281526020810184848401111561173a576117396116c6565b5b6117458482856116fc565b509392505050565b600082601f8301126117625761176161140d565b5b813561177284826020860161170b565b91505092915050565b600060208284031215611791576117906113d7565b5b600082013567ffffffffffffffff8111156117af576117ae6113dc565b5b6117bb8482850161174d565b91505092915050565b60008115159050919050565b6117d9816117c4565b82525050565b600081519050919050565b600082825260208201905092915050565b60005b838110156118195780820151818401526020810190506117fe565b60008484015250505050565b6000611830826117df565b61183a81856117ea565b935061184a8185602086016117fb565b61185381611412565b840191505092915050565b600060408201905061187360008301856117d0565b81810360208301526118858184611825565b90509392505050565b6000602082840312156118a4576118a36113d7565b5b60006118b2848285016113f8565b91505092915050565b60006040820190506118d0600083018561169c565b6118dd602083018461169c565b9392505050565b60006060820190506118f96000830186611311565b6119066020830185611311565b6119136040830184611311565b949350505050565b7f4e487b7100000000000000000000000000000000000000000000000000000000600052601160045260246000fd5b600061195582611307565b915061196083611307565b92508282019050808211156119785761197761191b565b5b92915050565b6000819050919050565b6119918161197e565b82525050565b600067ffffffffffffffff82169050919050565b6119b481611997565b82525050565b600061ffff82169050919050565b6119d1816119ba565b82525050565b600063ffffffff82169050919050565b6119f0816119d7565b82525050565b600060a082019050611a0b6000830188611988565b611a1860208301876119ab565b611a2560408301866119c8565b611a3260608301856119e7565b611a3f60808301846119e7565b9695505050505050565b600081519050611a58816113e1565b92915050565b600060208284031215611a7457611a736113d7565b5b6000611a8284828501611a49565b91505092915050565b6000611a9682611307565b9150611aa183611307565b9250828203905081811115611ab957611ab861191b565b5b92915050565b7f4e487b7100000000000000000000000000000000000000000000000000000000600052603260045260246000fd5b7f4e487b7100000000000000000000000000000000000000000000000000000000600052601260045260246000fd5b6000611b2882611307565b9150611b3383611307565b925082611b4357611b42611aee565b5b828206905092915050565b600081905092915050565b50565b6000611b69600083611b4e565b9150611b7482611b59565b600082019050919050565b6000611b8a82611b5c565b915081905091905056fea26469706673582212205f16f192db5a07d5b637ed0438777e4438e5d5105dfd58dbe8bc879b3e09abbf64736f6c63430008130033",
  "linkReferences": {},
  "deployedLinkReferences": {}
}