{
  "address": "0xCf7Ed3AccA5a467e9e704C703E8D87F634fB0Fc9",
  "abi": [
    {
      "inputs": [
        {
          "internalType": "address",
          "name": "vrfCoordinatorV2",
          "type": "address"
        },
        {
          "internalType": "uint64",
          "name": "subscriptionId",
          "type": "uint64"
        },
        {
          "internalType": "bytes32",
          "name": "gasLane",
          "type": "bytes32"
        },
        {
          "internalType": "uint256",
          "name": "updateInterval",
          "type": "uint256"
        },
        {
          "internalType": "uint256",
          "name": "entranceFee",
          "type": "uint256"
        },
        {
          "internalType": "uint32",
          "name": "callBackGasLimit",
          "type": "uint32"
        }
      ],
      "stateMutability": "nonpayable",
      "type": "constructor"
    },
    {
      "inputs": [
        {
          "internalType": "address",
          "name": "have",
          "type": "address"
        },
        {
          "internalType": "address",
          "name": "want",
          "type": "address"
        }
      ],
      "name": "OnlyCoordinatorCanFulfill",
      "type": "error"
    },
    {
      "inputs": [],
      "name": "Raffle__NotEnoughEthEntered",
      "type": "error"
    },
    {
      "inputs": [],
      "name": "Raffle__NotOpen",
      "type": "error"
    },
    {
      "inputs": [],
      "name": "Raffle__TransferFailed",
      "type": "error"
    },
    {
      "inputs": [
        {
          "internalType": "uint256",
          "name": "currentBalance",
          "type": "uint256"
        },
        {
          "internalType": "uint256",
          "name": "numPlayers",
          "type": "uint256"
        },
        {
          "internalType": "uint256",
          "name": "raffleState",
          "type": "uint256"
        }
      ],
      "name": "Raffle__UpkeepNeeded",
      "type": "error"
    },
    {
      "anonymous": false,
      "inputs": [
        {
          "indexed": true,
          "internalType": "address",
          "name": "player",
          "type": "address"
        }
      ],
      "name": "RaffleEnter",
      "type": "event"
    },
    {
      "anonymous": false,
      "inputs": [
        {
          "indexed": true,
          "internalType": "uint256",
          "name": "requestId",
          "type": "uint256"
        }
      ],
      "name": "RequestedRaffleWinner",
      "type": "event"
    },
    {
      "anonymous": false,
      "inputs": [
        {
          "indexed": true,
          "internalType": "address",
          "name": "winner",
          "type": "address"
        }
      ],
      "name": "WinnerPicked",
      "type": "event"
    },
    {
      "inputs": [
        {
          "internalType": "bytes",
          "name": "",
          "type": "bytes"
        }
      ],
      "name": "checkUpkeep",
      "outputs": [
        {
          "internalType": "bool",
          "name": "upkeepNeeded",
          "type": "bool"
        },
        {
          "internalType": "bytes",
          "name": "",
          "type": "bytes"
        }
      ],
      "stateMutability": "nonpayable",
      "type": "function"
    },
    {
      "inputs": [],
      "name": "counter",
      "outputs": [
        {
          "internalType": "uint256",
          "name": "",
          "type": "uint256"
        }
      ],
      "stateMutability": "view",
      "type": "function"
    },
    {
      "inputs": [],
      "name": "enterRaffle",
      "outputs": [],
      "stateMutability": "payable",
      "type": "function"
    },
    {
      "inputs": [],
      "name": "getEntranceFee",
      "outputs": [
        {
          "internalType": "uint256",
          "name": "",
          "type": "uint256"
        }
      ],
      "stateMutability": "view",
      "type": "function"
    },
    {
      "inputs": [],
      "name": "getLastTimeStamp",
      "outputs": [
        {
          "internalType": "uint256",
          "name": "",
          "type": "uint256"
        }
      ],
      "stateMutability": "view",
      "type": "function"
    },
    {
      "inputs": [],
      "name": "getNumWords",
      "outputs": [
        {
          "internalType": "uint256",
          "name": "",
          "type": "uint256"
        }
      ],
      "stateMutability": "pure",
      "type": "function"
    },
    {
      "inputs": [],
      "name": "getNumberOfPlayers",
      "outputs": [
        {
          "internalType": "uint256",
          "name": "",
          "type": "uint256"
        }
      ],
      "stateMutability": "view",
      "type": "function"
    },
    {
      "inputs": [
        {
          "internalType": "uint256",
          "name": "index",
          "type": "uint256"
        }
      ],
      "name": "getPlayer",
      "outputs": [
        {
          "internalType": "address",
          "name": "",
          "type": "address"
        }
      ],
      "stateMutability": "view",
      "type": "function"
    },
    {
      "inputs": [],
      "name": "getRaffleState",
      "outputs": [
        {
          "internalType": "enum Raffle.RaffleState",
          "name": "",
          "type": "uint8"
        }
      ],
      "stateMutability": "view",
      "type": "function"
    },
    {
      "inputs": [],
      "name": "getRecentWinner",
      "outputs": [
        {
          "internalType": "address",
          "name": "",
          "type": "address"
        }
      ],
      "stateMutability": "view",
      "type": "function"
    },
    {
      "inputs": [],
      "name": "getRequestConfirmations",
      "outputs": [
        {
          "internalType": "uint256",
          "name": "",
          "type": "uint256"
        }
      ],
      "stateMutability": "pure",
      "type": "function"
    },
    {
      "inputs": [],
      "name": "interval",
      "outputs": [
        {
          "internalType": "uint256",
          "name": "",
          "type": "uint256"
        }
      ],
      "stateMutability": "view",
      "type": "function"
    },
    {
      "inputs": [
        {
          "internalType": "bytes",
          "name": "",
          "type": "bytes"
        }
      ],
      "name": "performUpkeep",
      "outputs": [],
      "stateMutability": "nonpayable",
      "type": "function"
    },
    {
      "inputs": [
        {
          "internalType": "uint256",
          "name": "requestId",
          "type": "uint256"
        },
        {
          "internalType": "uint256[]",
          "name": "randomWords",
          "type": "uint256[]"
        }
      ],
      "name": "rawFulfillRandomWords",
      "outputs": [],
      "stateMutability": "nonpayable",
      "type": "function"
    },
    {
      "inputs": [],
      "name": "s_lastTimeStamp",
      "outputs": [
        {
          "internalType": "uint256",
          "name": "",
          "type": "uint256"
        }
      ],
      "stateMutability": "view",
      "type": "function"
    }
  ],
  "transactionHash": "0xba60946667172dadde73ddd61f5f3ddd6d4164d9e5188a38621b8ac881b46300",
  "args": [
    "0x5FbDB2315678afecb367f032d93F642f64180aa3",
    "1",
    "0x474e34a077df58807dbe9c96d3c009b23b3c6d0cce433e59bbf5b34f823bc56c",
    "30",
    "10000000000000000",
    "500000"
  ],
  "numDeployments": 1,
  "solcInputHash": "a899aaa2c1382a6886f537cb67e7c7c0",
  "bytecode": "0x6101606040526000600360146101000a81548160ff021916908360018111156200002e576200002d62000136565b5b02179055503480156200004057600080fd5b50604051620018d6380380620018d68339818101604052810190620000669190620002cb565b858073ffffffffffffffffffffffffffffffffffffffff1660808173ffffffffffffffffffffffffffffffffffffffff1681525050508160a081815250508573ffffffffffffffffffffffffffffffffffffffff1660c08173ffffffffffffffffffffffffffffffffffffffff16815250508360e081815250508467ffffffffffffffff166101008167ffffffffffffffff16815250508063ffffffff166101208163ffffffff168152505082610140818152505042600281905550600060018190555050505050505062000367565b7f4e487b7100000000000000000000000000000000000000000000000000000000600052602160045260246000fd5b600080fd5b600073ffffffffffffffffffffffffffffffffffffffff82169050919050565b600062000197826200016a565b9050919050565b620001a9816200018a565b8114620001b557600080fd5b50565b600081519050620001c9816200019e565b92915050565b600067ffffffffffffffff82169050919050565b620001ee81620001cf565b8114620001fa57600080fd5b50565b6000815190506200020e81620001e3565b92915050565b6000819050919050565b620002298162000214565b81146200023557600080fd5b50565b60008151905062000249816200021e565b92915050565b6000819050919050565b62000264816200024f565b81146200027057600080fd5b50565b600081519050620002848162000259565b92915050565b600063ffffffff82169050919050565b620002a5816200028a565b8114620002b157600080fd5b50565b600081519050620002c5816200029a565b92915050565b60008060008060008060c08789031215620002eb57620002ea62000165565b5b6000620002fb89828a01620001b8565b96505060206200030e89828a01620001fd565b95505060406200032189828a0162000238565b94505060606200033489828a0162000273565b93505060806200034789828a0162000273565b92505060a06200035a89828a01620002b4565b9150509295509295509295565b60805160a05160c05160e0516101005161012051610140516114ff620003d76000396000818161089301526108ec0152600061073901526000610716015260006106f5015260006106b901526000818161037601526104730152600081816103b3015261040701526114ff6000f3fe6080604052600436106100e85760003560e01c806353a2c19a1161008a578063947a36fb11610059578063947a36fb146102b4578063c1c244e8146102df578063e55ae4e81461030a578063fd6673f514610347576100e8565b806353a2c19a146101f55780635f1b0fd81461022057806361bc221a1461024b5780636e04ff0d14610276576100e8565b80632cfcc539116100c65780632cfcc5391461016c57806334854043146101765780634585e33b146101a1578063473f1ddc146101ca576100e8565b806309bc33a7146100ed578063115cbaf5146101185780631fe543e314610143575b600080fd5b3480156100f957600080fd5b50610102610372565b60405161010f9190610c55565b60405180910390f35b34801561012457600080fd5b5061012d61039a565b60405161013a9190610ce7565b60405180910390f35b34801561014f57600080fd5b5061016a60048036038101906101659190610e9b565b6103b1565b005b610174610471565b005b34801561018257600080fd5b5061018b6105e0565b6040516101989190610c55565b60405180910390f35b3480156101ad57600080fd5b506101c860048036038101906101c39190610f52565b6105e6565b005b3480156101d657600080fd5b506101df6107f2565b6040516101ec9190610fe0565b60405180910390f35b34801561020157600080fd5b5061020a61081c565b6040516102179190610c55565b60405180910390f35b34801561022c57600080fd5b5061023561082b565b6040516102429190610c55565b60405180910390f35b34801561025757600080fd5b50610260610838565b60405161026d9190610c55565b60405180910390f35b34801561028257600080fd5b5061029d600480360381019061029891906110b0565b61083e565b6040516102ab929190611193565b60405180910390f35b3480156102c057600080fd5b506102c96108ea565b6040516102d69190610c55565b60405180910390f35b3480156102eb57600080fd5b506102f461090e565b6040516103019190610c55565b60405180910390f35b34801561031657600080fd5b50610331600480360381019061032c91906111c3565b610918565b60405161033e9190610fe0565b60405180910390f35b34801561035357600080fd5b5061035c61095f565b6040516103699190610c55565b60405180910390f35b60007f0000000000000000000000000000000000000000000000000000000000000000905090565b6000600360149054906101000a900460ff16905090565b7f000000000000000000000000000000000000000000000000000000000000000073ffffffffffffffffffffffffffffffffffffffff163373ffffffffffffffffffffffffffffffffffffffff161461046357337f00000000000000000000000000000000000000000000000000000000000000006040517f1cf993f400000000000000000000000000000000000000000000000000000000815260040161045a9291906111f0565b60405180910390fd5b61046d828261096b565b5050565b7f00000000000000000000000000000000000000000000000000000000000000003410156104cb576040517f066d781f00000000000000000000000000000000000000000000000000000000815260040160405180910390fd5b600060018111156104df576104de610c70565b5b600360149054906101000a900460ff16600181111561050157610500610c70565b5b14610538576040517f1425571c00000000000000000000000000000000000000000000000000000000815260040160405180910390fd5b6000339080600181540180825580915050600190039060005260206000200160009091909190916101000a81548173ffffffffffffffffffffffffffffffffffffffff021916908373ffffffffffffffffffffffffffffffffffffffff1602179055503373ffffffffffffffffffffffffffffffffffffffff167f0805e1d667bddb8a95f0f09880cf94f403fb596ce79928d9f29b74203ba284d460405160405180910390a2565b60025481565b60006106006040518060200160405280600081525061083e565b5090508061066f5747600080549050600360149054906101000a900460ff16600181111561063157610630610c70565b5b6040517ff02a5e6a00000000000000000000000000000000000000000000000000000000815260040161066693929190611219565b60405180910390fd5b4260028190555060018054610684919061127f565b6001819055506001600360146101000a81548160ff021916908360018111156106b0576106af610c70565b5b021790555060007f000000000000000000000000000000000000000000000000000000000000000073ffffffffffffffffffffffffffffffffffffffff16635d3b1d307f00000000000000000000000000000000000000000000000000000000000000007f000000000000000000000000000000000000000000000000000000000000000060037f000000000000000000000000000000000000000000000000000000000000000060016040518663ffffffff1660e01b815260040161077a95949392919061132b565b6020604051808303816000875af1158015610799573d6000803e3d6000fd5b505050506040513d601f19601f820116820180604052508101906107bd9190611393565b9050807fcd6e45c8998311cab7e9d4385596cac867e20a0587194b954fa3a731c93ce78b60405160405180910390a250505050565b6000600360009054906101000a900473ffffffffffffffffffffffffffffffffffffffff16905090565b6000600163ffffffff16905090565b6000600361ffff16905090565b60015481565b60006060600080600181111561085757610856610c70565b5b600360149054906101000a900460ff16600181111561087957610878610c70565b5b1490506000806000805490501190506000804711905060007f0000000000000000000000000000000000000000000000000000000000000000600254426108c091906113c0565b1190508380156108cd5750825b80156108d65750815b80156108df5750805b955050505050915091565b7f000000000000000000000000000000000000000000000000000000000000000081565b6000600254905090565b600080828154811061092d5761092c6113f4565b5b9060005260206000200160009054906101000a900473ffffffffffffffffffffffffffffffffffffffff169050919050565b60008080549050905090565b6000808054905082600081518110610986576109856113f4565b5b60200260200101516109989190611452565b905060008082815481106109af576109ae6113f4565b5b9060005260206000200160009054906101000a900473ffffffffffffffffffffffffffffffffffffffff16905080600360006101000a81548173ffffffffffffffffffffffffffffffffffffffff021916908373ffffffffffffffffffffffffffffffffffffffff1602179055506000600360146101000a81548160ff02191690836001811115610a4357610a42610c70565b5b0217905550600067ffffffffffffffff811115610a6357610a62610d58565b5b604051908082528060200260200182016040528015610a915781602001602082028036833780820191505090505b5060009080519060200190610aa7929190610b95565b5060008173ffffffffffffffffffffffffffffffffffffffff1647604051610ace906114b4565b60006040518083038185875af1925050503d8060008114610b0b576040519150601f19603f3d011682016040523d82523d6000602084013e610b10565b606091505b5050905080610b4b576040517fa1d04b3900000000000000000000000000000000000000000000000000000000815260040160405180910390fd5b8173ffffffffffffffffffffffffffffffffffffffff167f5b690ec4a06fe979403046eaeea5b3ce38524683c3001f662c8b5a829632f7df60405160405180910390a25050505050565b828054828255906000526020600020908101928215610c0e579160200282015b82811115610c0d5782518260006101000a81548173ffffffffffffffffffffffffffffffffffffffff021916908373ffffffffffffffffffffffffffffffffffffffff16021790555091602001919060010190610bb5565b5b509050610c1b9190610c1f565b5090565b5b80821115610c38576000816000905550600101610c20565b5090565b6000819050919050565b610c4f81610c3c565b82525050565b6000602082019050610c6a6000830184610c46565b92915050565b7f4e487b7100000000000000000000000000000000000000000000000000000000600052602160045260246000fd5b60028110610cb057610caf610c70565b5b50565b6000819050610cc182610c9f565b919050565b6000610cd182610cb3565b9050919050565b610ce181610cc6565b82525050565b6000602082019050610cfc6000830184610cd8565b92915050565b6000604051905090565b600080fd5b600080fd5b610d1f81610c3c565b8114610d2a57600080fd5b50565b600081359050610d3c81610d16565b92915050565b600080fd5b6000601f19601f8301169050919050565b7f4e487b7100000000000000000000000000000000000000000000000000000000600052604160045260246000fd5b610d9082610d47565b810181811067ffffffffffffffff82111715610daf57610dae610d58565b5b80604052505050565b6000610dc2610d02565b9050610dce8282610d87565b919050565b600067ffffffffffffffff821115610dee57610ded610d58565b5b602082029050602081019050919050565b600080fd5b6000610e17610e1284610dd3565b610db8565b90508083825260208201905060208402830185811115610e3a57610e39610dff565b5b835b81811015610e635780610e4f8882610d2d565b845260208401935050602081019050610e3c565b5050509392505050565b600082601f830112610e8257610e81610d42565b5b8135610e92848260208601610e04565b91505092915050565b60008060408385031215610eb257610eb1610d0c565b5b6000610ec085828601610d2d565b925050602083013567ffffffffffffffff811115610ee157610ee0610d11565b5b610eed85828601610e6d565b9150509250929050565b600080fd5b60008083601f840112610f1257610f11610d42565b5b8235905067ffffffffffffffff811115610f2f57610f2e610ef7565b5b602083019150836001820283011115610f4b57610f4a610dff565b5b9250929050565b60008060208385031215610f6957610f68610d0c565b5b600083013567ffffffffffffffff811115610f8757610f86610d11565b5b610f9385828601610efc565b92509250509250929050565b600073ffffffffffffffffffffffffffffffffffffffff82169050919050565b6000610fca82610f9f565b9050919050565b610fda81610fbf565b82525050565b6000602082019050610ff56000830184610fd1565b92915050565b600080fd5b600067ffffffffffffffff82111561101b5761101a610d58565b5b61102482610d47565b9050602081019050919050565b82818337600083830152505050565b600061105361104e84611000565b610db8565b90508281526020810184848401111561106f5761106e610ffb565b5b61107a848285611031565b509392505050565b600082601f83011261109757611096610d42565b5b81356110a7848260208601611040565b91505092915050565b6000602082840312156110c6576110c5610d0c565b5b600082013567ffffffffffffffff8111156110e4576110e3610d11565b5b6110f084828501611082565b91505092915050565b60008115159050919050565b61110e816110f9565b82525050565b600081519050919050565b600082825260208201905092915050565b60005b8381101561114e578082015181840152602081019050611133565b60008484015250505050565b600061116582611114565b61116f818561111f565b935061117f818560208601611130565b61118881610d47565b840191505092915050565b60006040820190506111a86000830185611105565b81810360208301526111ba818461115a565b90509392505050565b6000602082840312156111d9576111d8610d0c565b5b60006111e784828501610d2d565b91505092915050565b60006040820190506112056000830185610fd1565b6112126020830184610fd1565b9392505050565b600060608201905061122e6000830186610c46565b61123b6020830185610c46565b6112486040830184610c46565b949350505050565b7f4e487b7100000000000000000000000000000000000000000000000000000000600052601160045260246000fd5b600061128a82610c3c565b915061129583610c3c565b92508282019050808211156112ad576112ac611250565b5b92915050565b6000819050919050565b6112c6816112b3565b82525050565b600067ffffffffffffffff82169050919050565b6112e9816112cc565b82525050565b600061ffff82169050919050565b611306816112ef565b82525050565b600063ffffffff82169050919050565b6113258161130c565b82525050565b600060a08201905061134060008301886112bd565b61134d60208301876112e0565b61135a60408301866112fd565b611367606083018561131c565b611374608083018461131c565b9695505050505050565b60008151905061138d81610d16565b92915050565b6000602082840312156113a9576113a8610d0c565b5b60006113b78482850161137e565b91505092915050565b60006113cb82610c3c565b91506113d683610c3c565b92508282039050818111156113ee576113ed611250565b5b92915050565b7f4e487b7100000000000000000000000000000000000000000000000000000000600052603260045260246000fd5b7f4e487b7100000000000000000000000000000000000000000000000000000000600052601260045260246000fd5b600061145d82610c3c565b915061146883610c3c565b92508261147857611477611423565b5b828206905092915050565b600081905092915050565b50565b600061149e600083611483565b91506114a98261148e565b600082019050919050565b60006114bf82611491565b915081905091905056fea2646970667358221220f32b594e93898197331ccd1cb9a7428bda5afc9c69af941235a7d53a144850ab64736f6c63430008130033",
  "devdoc": {
    "author": "Alior.ETH",
    "details": "implemented Chainlink API VRF V2 and Chainlink Automation",
    "kind": "dev",
    "methods": {
      "checkUpkeep(bytes)": {
        "details": "This is the function Chainlink Automation Nodes call to look for the upkeepNeeded to return true The following should be true in order for this value to be true: 1. Out time interval to be passed 2. The lottery player pool shoul be at least 1 and have some ETH 3. Our subscription is funded with LINK 4. The lottery should be in OPEN mode (not PENDING)"
      }
    },
    "title": "Raffle Contract",
    "version": 1
  },
  "userdoc": {
    "kind": "user",
    "methods": {
      "interval()": {
        "notice": "Use an interval in seconds and a timestamp to slow execution of Upkeep"
      }
    },
    "notice": "Smart Contract for a decentralised Raffle",
    "version": 1
  },
  "storageLayout": {
    "storage": [
      {
        "astId": 204,
        "contract": "contracts/Raffle.sol:Raffle",
        "label": "s_players",
        "offset": 0,
        "slot": "0",
        "type": "t_array(t_address_payable)dyn_storage"
      },
      {
        "astId": 221,
        "contract": "contracts/Raffle.sol:Raffle",
        "label": "counter",
        "offset": 0,
        "slot": "1",
        "type": "t_uint256"
      },
      {
        "astId": 226,
        "contract": "contracts/Raffle.sol:Raffle",
        "label": "s_lastTimeStamp",
        "offset": 0,
        "slot": "2",
        "type": "t_uint256"
      },
      {
        "astId": 228,
        "contract": "contracts/Raffle.sol:Raffle",
        "label": "s_recentWinner",
        "offset": 0,
        "slot": "3",
        "type": "t_address_payable"
      },
      {
        "astId": 233,
        "contract": "contracts/Raffle.sol:Raffle",
        "label": "s_raffleState",
        "offset": 20,
        "slot": "3",
        "type": "t_enum(RaffleState)199"
      }
    ],
    "types": {
      "t_address_payable": {
        "encoding": "inplace",
        "label": "address payable",
        "numberOfBytes": "20"
      },
      "t_array(t_address_payable)dyn_storage": {
        "base": "t_address_payable",
        "encoding": "dynamic_array",
        "label": "address payable[]",
        "numberOfBytes": "32"
      },
      "t_enum(RaffleState)199": {
        "encoding": "inplace",
        "label": "enum Raffle.RaffleState",
        "numberOfBytes": "1"
      },
      "t_uint256": {
        "encoding": "inplace",
        "label": "uint256",
        "numberOfBytes": "32"
      }
    }
  }
}